{
  "contractName": "TournamentScore",
  "abi": [
    {
      "anonymous": false,
      "inputs": [
        {
          "indexed": false,
          "internalType": "string",
          "name": "name",
          "type": "string"
        },
        {
          "indexed": false,
          "internalType": "uint256",
          "name": "score",
          "type": "uint256"
        }
      ],
      "name": "PlayerAdded",
      "type": "event"
    },
    {
      "inputs": [
        {
          "internalType": "uint256",
          "name": "",
          "type": "uint256"
        }
      ],
      "name": "players",
      "outputs": [
        {
          "internalType": "string",
          "name": "name",
          "type": "string"
        },
        {
          "internalType": "uint256",
          "name": "score",
          "type": "uint256"
        }
      ],
      "stateMutability": "view",
      "type": "function",
      "constant": true
    },
    {
      "inputs": [
        {
          "internalType": "string",
          "name": "_name",
          "type": "string"
        }
      ],
      "name": "addPlayer",
      "outputs": [],
      "stateMutability": "nonpayable",
      "type": "function"
    },
    {
      "inputs": [
        {
          "internalType": "uint256",
          "name": "_index",
          "type": "uint256"
        }
      ],
      "name": "getPlayerScore",
      "outputs": [
        {
          "internalType": "string",
          "name": "name",
          "type": "string"
        },
        {
          "internalType": "uint256",
          "name": "score",
          "type": "uint256"
        }
      ],
      "stateMutability": "view",
      "type": "function",
      "constant": true
    },
    {
      "inputs": [],
      "name": "getTotalPlayers",
      "outputs": [
        {
          "internalType": "uint256",
          "name": "",
          "type": "uint256"
        }
      ],
      "stateMutability": "view",
      "type": "function",
      "constant": true
    },
    {
      "inputs": [],
      "name": "getAllPlayers",
      "outputs": [
        {
          "components": [
            {
              "internalType": "string",
              "name": "name",
              "type": "string"
            },
            {
              "internalType": "uint256",
              "name": "score",
              "type": "uint256"
            }
          ],
          "internalType": "struct TournamentScore.Player[]",
          "name": "",
          "type": "tuple[]"
        }
      ],
      "stateMutability": "view",
      "type": "function",
      "constant": true
    },
    {
      "inputs": [
        {
          "internalType": "string[]",
          "name": "playerNames",
          "type": "string[]"
        },
        {
          "internalType": "uint256[]",
          "name": "scores",
          "type": "uint256[]"
        }
      ],
      "name": "finalizeTournament",
      "outputs": [],
      "stateMutability": "nonpayable",
      "type": "function"
    }
  ],
  "bytecode": "0x608060405234801561000f575f80fd5b5061141d8061001d5f395ff3fe608060405234801561000f575f80fd5b5060043610610060575f3560e01c806342ac201d146100645780634529cae71461008057806390fdacf41461009e578063efa1c482146100cf578063f71d96cb146100ed578063f77e8b831461011e575b5f80fd5b61007e60048036038101906100799190610aaf565b61013a565b005b6100886103dd565b6040516100959190610b34565b60405180910390f35b6100b860048036038101906100b39190610b4d565b6103e8565b6040516100c6929190610bf2565b60405180910390f35b6100d761050a565b6040516100e49190610d6c565b60405180910390f35b61010760048036038101906101029190610b4d565b6105fe565b604051610115929190610bf2565b60405180910390f35b61013860048036038101906101339190610d8c565b6106b2565b005b805182511461017e576040517f08c379a000000000000000000000000000000000000000000000000000000000815260040161017590610e43565b60405180910390fd5b5f5b82518110156103d8575f83828151811061019d5761019c610e61565b5b602002602001015151116101e6576040517f08c379a00000000000000000000000000000000000000000000000000000000081526004016101dd90610ed8565b60405180910390fd5b5f805b5f805490508110156102c05784838151811061020857610207610e61565b5b6020026020010151805190602001205f828154811061022a57610229610e61565b5b905f5260205f2090600202015f016040516102459190610fef565b6040518091039020036102ad5783838151811061026557610264610e61565b5b60200260200101515f82815481106102805761027f610e61565b5b905f5260205f2090600202016001015f82825461029d9190611032565b92505081905550600191506102c0565b80806102b890611065565b9150506101e9565b50806103c4575f60405180604001604052808685815181106102e5576102e4610e61565b5b6020026020010151815260200185858151811061030557610304610e61565b5b6020026020010151815250908060018154018082558091505060019003905f5260205f2090600202015f909190919091505f820151815f0190816103499190611249565b506020820151816001015550507f04e8c7d1d6842c2dd64514d16ab713b7099bf0327e3c6361714d58f04a32aee684838151811061038a57610389610e61565b5b60200260200101518484815181106103a5576103a4610e61565b5b60200260200101516040516103bb929190610bf2565b60405180910390a15b5080806103d090611065565b915050610180565b505050565b5f8080549050905090565b60605f80805490508310610431576040517f08c379a000000000000000000000000000000000000000000000000000000000815260040161042890611362565b60405180910390fd5b5f80848154811061044557610444610e61565b5b905f5260205f2090600202016040518060400160405290815f8201805461046b90610f23565b80601f016020809104026020016040519081016040528092919081815260200182805461049790610f23565b80156104e25780601f106104b9576101008083540402835291602001916104e2565b820191905f5260205f20905b8154815290600101906020018083116104c557829003601f168201915b505050505081526020016001820154815250509050805f015181602001519250925050915091565b60605f805480602002602001604051908101604052809291908181526020015f905b828210156105f5578382905f5260205f2090600202016040518060400160405290815f8201805461055c90610f23565b80601f016020809104026020016040519081016040528092919081815260200182805461058890610f23565b80156105d35780601f106105aa576101008083540402835291602001916105d3565b820191905f5260205f20905b8154815290600101906020018083116105b657829003601f168201915b505050505081526020016001820154815250508152602001906001019061052c565b50505050905090565b5f818154811061060c575f80fd5b905f5260205f2090600202015f91509050805f01805461062b90610f23565b80601f016020809104026020016040519081016040528092919081815260200182805461065790610f23565b80156106a25780601f10610679576101008083540402835291602001916106a2565b820191905f5260205f20905b81548152906001019060200180831161068557829003601f168201915b5050505050908060010154905082565b5f8151116106f5576040517f08c379a00000000000000000000000000000000000000000000000000000000081526004016106ec90610ed8565b60405180910390fd5b5f60405180604001604052808381526020015f815250908060018154018082558091505060019003905f5260205f2090600202015f909190919091505f820151815f0190816107449190611249565b506020820151816001015550507f04e8c7d1d6842c2dd64514d16ab713b7099bf0327e3c6361714d58f04a32aee6815f6040516107829291906113b9565b60405180910390a150565b5f604051905090565b5f80fd5b5f80fd5b5f80fd5b5f601f19601f8301169050919050565b7f4e487b71000000000000000000000000000000000000000000000000000000005f52604160045260245ffd5b6107e8826107a2565b810181811067ffffffffffffffff82111715610807576108066107b2565b5b80604052505050565b5f61081961078d565b905061082582826107df565b919050565b5f67ffffffffffffffff821115610844576108436107b2565b5b602082029050602081019050919050565b5f80fd5b5f80fd5b5f67ffffffffffffffff821115610877576108766107b2565b5b610880826107a2565b9050602081019050919050565b828183375f83830152505050565b5f6108ad6108a88461085d565b610810565b9050828152602081018484840111156108c9576108c8610859565b5b6108d484828561088d565b509392505050565b5f82601f8301126108f0576108ef61079e565b5b813561090084826020860161089b565b91505092915050565b5f61091b6109168461082a565b610810565b9050808382526020820190506020840283018581111561093e5761093d610855565b5b835b8181101561098557803567ffffffffffffffff8111156109635761096261079e565b5b80860161097089826108dc565b85526020850194505050602081019050610940565b5050509392505050565b5f82601f8301126109a3576109a261079e565b5b81356109b3848260208601610909565b91505092915050565b5f67ffffffffffffffff8211156109d6576109d56107b2565b5b602082029050602081019050919050565b5f819050919050565b6109f9816109e7565b8114610a03575f80fd5b50565b5f81359050610a14816109f0565b92915050565b5f610a2c610a27846109bc565b610810565b90508083825260208201905060208402830185811115610a4f57610a4e610855565b5b835b81811015610a785780610a648882610a06565b845260208401935050602081019050610a51565b5050509392505050565b5f82601f830112610a9657610a9561079e565b5b8135610aa6848260208601610a1a565b91505092915050565b5f8060408385031215610ac557610ac4610796565b5b5f83013567ffffffffffffffff811115610ae257610ae161079a565b5b610aee8582860161098f565b925050602083013567ffffffffffffffff811115610b0f57610b0e61079a565b5b610b1b85828601610a82565b9150509250929050565b610b2e816109e7565b82525050565b5f602082019050610b475f830184610b25565b92915050565b5f60208284031215610b6257610b61610796565b5b5f610b6f84828501610a06565b91505092915050565b5f81519050919050565b5f82825260208201905092915050565b5f5b83811015610baf578082015181840152602081019050610b94565b5f8484015250505050565b5f610bc482610b78565b610bce8185610b82565b9350610bde818560208601610b92565b610be7816107a2565b840191505092915050565b5f6040820190508181035f830152610c0a8185610bba565b9050610c196020830184610b25565b9392505050565b5f81519050919050565b5f82825260208201905092915050565b5f819050602082019050919050565b5f82825260208201905092915050565b5f610c6382610b78565b610c6d8185610c49565b9350610c7d818560208601610b92565b610c86816107a2565b840191505092915050565b610c9a816109e7565b82525050565b5f604083015f8301518482035f860152610cba8282610c59565b9150506020830151610ccf6020860182610c91565b508091505092915050565b5f610ce58383610ca0565b905092915050565b5f602082019050919050565b5f610d0382610c20565b610d0d8185610c2a565b935083602082028501610d1f85610c3a565b805f5b85811015610d5a5784840389528151610d3b8582610cda565b9450610d4683610ced565b925060208a01995050600181019050610d22565b50829750879550505050505092915050565b5f6020820190508181035f830152610d848184610cf9565b905092915050565b5f60208284031215610da157610da0610796565b5b5f82013567ffffffffffffffff811115610dbe57610dbd61079a565b5b610dca848285016108dc565b91505092915050565b7f4c6573207461626c6561757820646f6976656e742061766f6972206c61206d655f8201527f6d65206c6f6e6775657572000000000000000000000000000000000000000000602082015250565b5f610e2d602b83610b82565b9150610e3882610dd3565b604082019050919050565b5f6020820190508181035f830152610e5a81610e21565b9050919050565b7f4e487b71000000000000000000000000000000000000000000000000000000005f52603260045260245ffd5b7f4c65206e6f6d206e6520706575742070617320657472652076696465000000005f82015250565b5f610ec2601c83610b82565b9150610ecd82610e8e565b602082019050919050565b5f6020820190508181035f830152610eef81610eb6565b9050919050565b7f4e487b71000000000000000000000000000000000000000000000000000000005f52602260045260245ffd5b5f6002820490506001821680610f3a57607f821691505b602082108103610f4d57610f4c610ef6565b5b50919050565b5f81905092915050565b5f819050815f5260205f209050919050565b5f8154610f7b81610f23565b610f858186610f53565b9450600182165f8114610f9f5760018114610fb457610fe6565b60ff1983168652811515820286019350610fe6565b610fbd85610f5d565b5f5b83811015610fde57815481890152600182019150602081019050610fbf565b838801955050505b50505092915050565b5f610ffa8284610f6f565b915081905092915050565b7f4e487b71000000000000000000000000000000000000000000000000000000005f52601160045260245ffd5b5f61103c826109e7565b9150611047836109e7565b925082820190508082111561105f5761105e611005565b5b92915050565b5f61106f826109e7565b91507fffffffffffffffffffffffffffffffffffffffffffffffffffffffffffffffff82036110a1576110a0611005565b5b600182019050919050565b5f819050815f5260205f209050919050565b5f6020601f8301049050919050565b5f82821b905092915050565b5f600883026111087fffffffffffffffffffffffffffffffffffffffffffffffffffffffffffffffff826110cd565b61111286836110cd565b95508019841693508086168417925050509392505050565b5f819050919050565b5f61114d611148611143846109e7565b61112a565b6109e7565b9050919050565b5f819050919050565b61116683611133565b61117a61117282611154565b8484546110d9565b825550505050565b5f90565b61118e611182565b61119981848461115d565b505050565b5b818110156111bc576111b15f82611186565b60018101905061119f565b5050565b601f821115611201576111d2816110ac565b6111db846110be565b810160208510156111ea578190505b6111fe6111f6856110be565b83018261119e565b50505b505050565b5f82821c905092915050565b5f6112215f1984600802611206565b1980831691505092915050565b5f6112398383611212565b9150826002028217905092915050565b61125282610b78565b67ffffffffffffffff81111561126b5761126a6107b2565b5b6112758254610f23565b6112808282856111c0565b5f60209050601f8311600181146112b1575f841561129f578287015190505b6112a9858261122e565b865550611310565b601f1984166112bf866110ac565b5f5b828110156112e6578489015182556001820191506020850194506020810190506112c1565b8683101561130357848901516112ff601f891682611212565b8355505b6001600288020188555050505b505050505050565b7f496e64657820686f7273206c696d6974657300000000000000000000000000005f82015250565b5f61134c601283610b82565b915061135782611318565b602082019050919050565b5f6020820190508181035f83015261137981611340565b9050919050565b5f819050919050565b5f6113a361139e61139984611380565b61112a565b6109e7565b9050919050565b6113b381611389565b82525050565b5f6040820190508181035f8301526113d18185610bba565b90506113e060208301846113aa565b939250505056fea2646970667358221220745fa96bc9832b1231d07ba839b483d13b884118eacba53650baa26cd94d56fd64736f6c63430008150033",
  "immutableReferences": {},
  "source": "// SPDX-License-Identifier: MIT\npragma solidity ^0.8.0;\n\ncontract TournamentScore {\n    struct Player {\n        string name;\n        uint score;\n    }\n\n    Player[] public players;\n\n    // Ajouter un vnement pour suivre les ajouts de joueurs\n    event PlayerAdded(string name, uint score);\n\n    function addPlayer(string memory _name) public {\n        require(bytes(_name).length > 0, \"Le nom ne peut pas etre vide\");\n        players.push(Player(_name, 0));\n        emit PlayerAdded(_name, 0); // Emettre un vnement aprs l'ajout d'un joueur\n    }\n\n    function getPlayerScore(uint _index) public view returns (string memory name, uint score) {\n        require(_index < players.length, \"Index hors limites\");\n        Player memory player = players[_index];\n        return (player.name, player.score);\n    }\n\n    function getTotalPlayers() public view returns (uint) {\n        return players.length;\n    }\n\n    function getAllPlayers() public view returns (Player[] memory) {\n        return players;\n    }\n\nfunction finalizeTournament(string[] memory playerNames, uint[] memory scores) public {\n    require(playerNames.length == scores.length, \"Les tableaux doivent avoir la meme longueur\");\n    for (uint i = 0; i < playerNames.length; i++) {\n        require(bytes(playerNames[i]).length > 0, \"Le nom ne peut pas etre vide\");\n\n        // Rechercher le joueur par son nom et mettre  jour son score cumulatif\n        bool found = false;\n        for (uint j = 0; j < players.length; j++) {\n            if (keccak256(bytes(players[j].name)) == keccak256(bytes(playerNames[i]))) {\n                players[j].score += scores[i];  // Ajouter le nouveau score  l'ancien\n                found = true;\n                break;\n            }\n        }\n\n        // Si le joueur n'est pas trouv, l'ajouter\n        if (!found) {\n            players.push(Player(playerNames[i], scores[i]));\n            emit PlayerAdded(playerNames[i], scores[i]);\n        }\n    }\n}\n}\n",
  "sourcePath": "/home/cmy/Downloads/trans_am-main/srcs/site/static/contracts/TournamentScore.sol",
  "compiler": {
    "name": "solc",
    "version": "0.8.21+commit.d9974bed.Emscripten.clang"
  },
  "schemaVersion": "3.4.16",
  "updatedAt": "2024-10-10T09:58:23.819Z",
  "networkType": "ethereum",
  "devdoc": {
    "kind": "dev",
    "methods": {},
    "version": 1
  },
  "userdoc": {
    "kind": "user",
    "methods": {},
    "version": 1
  }
}